{"abi":[{"type":"function","name":"args","inputs":[],"outputs":[{"name":"","type":"bytes","internalType":"bytes"}],"stateMutability":"view"},{"type":"function","name":"binary_check","inputs":[],"outputs":[],"stateMutability":"nonpayable"},{"type":"function","name":"bytesToString","inputs":[{"name":"data","type":"bytes","internalType":"bytes"}],"outputs":[{"name":"","type":"string","internalType":"string"}],"stateMutability":"pure"},{"type":"function","name":"code","inputs":[],"outputs":[{"name":"","type":"string","internalType":"string"}],"stateMutability":"view"},{"type":"function","name":"const_overrides","inputs":[{"name":"","type":"uint256","internalType":"uint256"}],"outputs":[{"name":"key","type":"string","internalType":"string"},{"name":"value","type":"string","internalType":"string"}],"stateMutability":"view"},{"type":"function","name":"creation_code","inputs":[{"name":"file","type":"string","internalType":"string"}],"outputs":[{"name":"bytecode","type":"bytes","internalType":"bytes"}],"stateMutability":"payable"},{"type":"function","name":"creation_code_with_args","inputs":[{"name":"file","type":"string","internalType":"string"}],"outputs":[{"name":"bytecode","type":"bytes","internalType":"bytes"}],"stateMutability":"payable"},{"type":"function","name":"deploy","inputs":[{"name":"file","type":"string","internalType":"string"}],"outputs":[{"name":"","type":"address","internalType":"address"}],"stateMutability":"payable"},{"type":"function","name":"deployer","inputs":[],"outputs":[{"name":"","type":"address","internalType":"address"}],"stateMutability":"view"},{"type":"function","name":"evm_version","inputs":[],"outputs":[{"name":"","type":"string","internalType":"string"}],"stateMutability":"view"},{"type":"function","name":"get_evm_version","inputs":[],"outputs":[{"name":"","type":"string","internalType":"string"}],"stateMutability":"view"},{"type":"function","name":"set_broadcast","inputs":[{"name":"broadcast","type":"bool","internalType":"bool"}],"outputs":[{"name":"","type":"address","internalType":"contract HuffConfig"}],"stateMutability":"nonpayable"},{"type":"function","name":"should_broadcast","inputs":[],"outputs":[{"name":"","type":"bool","internalType":"bool"}],"stateMutability":"view"},{"type":"function","name":"value","inputs":[],"outputs":[{"name":"","type":"uint256","internalType":"uint256"}],"stateMutability":"view"},{"type":"function","name":"vm","inputs":[],"outputs":[{"name":"","type":"address","internalType":"contract Vm"}],"stateMutability":"view"},{"type":"function","name":"with_addr_constant","inputs":[{"name":"key","type":"string","internalType":"string"},{"name":"value_","type":"address","internalType":"address"}],"outputs":[{"name":"","type":"address","internalType":"contract HuffConfig"}],"stateMutability":"nonpayable"},{"type":"function","name":"with_args","inputs":[{"name":"args_","type":"bytes","internalType":"bytes"}],"outputs":[{"name":"","type":"address","internalType":"contract HuffConfig"}],"stateMutability":"nonpayable"},{"type":"function","name":"with_bytes32_constant","inputs":[{"name":"key","type":"string","internalType":"string"},{"name":"value_","type":"bytes32","internalType":"bytes32"}],"outputs":[{"name":"","type":"address","internalType":"contract HuffConfig"}],"stateMutability":"nonpayable"},{"type":"function","name":"with_code","inputs":[{"name":"code_","type":"string","internalType":"string"}],"outputs":[{"name":"","type":"address","internalType":"contract HuffConfig"}],"stateMutability":"nonpayable"},{"type":"function","name":"with_constant","inputs":[{"name":"key","type":"string","internalType":"string"},{"name":"value_","type":"string","internalType":"string"}],"outputs":[{"name":"","type":"address","internalType":"contract HuffConfig"}],"stateMutability":"nonpayable"},{"type":"function","name":"with_deployer","inputs":[{"name":"_deployer","type":"address","internalType":"address"}],"outputs":[{"name":"","type":"address","internalType":"contract HuffConfig"}],"stateMutability":"nonpayable"},{"type":"function","name":"with_evm_version","inputs":[{"name":"_evm_version","type":"string","internalType":"string"}],"outputs":[{"name":"","type":"address","internalType":"contract HuffConfig"}],"stateMutability":"nonpayable"},{"type":"function","name":"with_uint_constant","inputs":[{"name":"key","type":"string","internalType":"string"},{"name":"value_","type":"uint256","internalType":"uint256"}],"outputs":[{"name":"","type":"address","internalType":"contract HuffConfig"}],"stateMutability":"nonpayable"},{"type":"function","name":"with_value","inputs":[{"name":"value_","type":"uint256","internalType":"uint256"}],"outputs":[{"name":"","type":"address","internalType":"contract HuffConfig"}],"stateMutability":"nonpayable"}],"bytecode":{"object":"0x6080604052600380546001600160a01b031916301790553480156020575f80fd5b506126db8061002e5f395ff3fe608060405260043610610147575f3560e01c80636b07af10116100b3578063c76023161161006d578063c7602316146103a0578063d5f39488146103b3578063dd1ec824146103d2578063df9f3dee146103e6578063e5df3076146102ce578063e9e68e1d14610420575f80fd5b80636b07af10146102ce5780636fcef9d5146102ed5780637dc2225f1461030c5780638093a1b91461032d57806392bb10d71461034c578063c5effd021461038a575f80fd5b806328764d141161010457806328764d141461021e57806339614e4f1461023d5780633a7684631461025c5780633fa4f245146102835780634e9b75b6146102a657806368f192f2146102ba575f80fd5b80630c7d16811461014b5780630cc76616146101815780631a8f1a1c146101a1578063220481ef146101d85780632232d908146101eb57806324c12bf61461020a575b5f80fd5b348015610156575f80fd5b5061016a610165366004611cda565b610450565b604051610178929190611d3e565b60405180910390f35b61019461018f366004611e2e565b61058b565b6040516101789190611e5f565b3480156101ac575f80fd5b506101c06101bb366004611e2e565b6105c2565b6040516001600160a01b039091168152602001610178565b6101946101e6366004611e2e565b6105d7565b3480156101f6575f80fd5b506101c0610205366004611e2e565b611182565b348015610215575f80fd5b5061019461118e565b348015610229575f80fd5b506101c0610238366004611e71565b611219565b348015610248575f80fd5b50610194610257366004611e71565b611226565b348015610267575f80fd5b506101c0737109709ecfa91a80626ff3989d68f67f5b1dd12d81565b34801561028e575f80fd5b5061029860025481565b604051908152602001610178565b3480156102b1575f80fd5b5061019461142d565b3480156102c5575f80fd5b5061019461143a565b3480156102d9575f80fd5b506101c06102e8366004611eb5565b611447565b3480156102f8575f80fd5b506101c0610307366004611f11565b6114cf565b348015610317575f80fd5b506101c0610326366004611cda565b6002553090565b348015610338575f80fd5b506101c0610347366004611f5b565b61150f565b348015610357575f80fd5b506101c0610366366004611fba565b600380546001600160a01b0319166001600160a01b03929092169190911790553090565b348015610395575f80fd5b5061039e61156a565b005b6101c06103ae366004611e2e565b611707565b3480156103be575f80fd5b506003546101c0906001600160a01b031681565b3480156103dd575f80fd5b50610194611804565b3480156103f1575f80fd5b506101c0610400366004611fd3565b60038054911515600160a01b0260ff60a01b199092169190911790553090565b34801561042b575f80fd5b5060035461044090600160a01b900460ff1681565b6040519015158152602001610178565b6005818154811061045f575f80fd5b905f5260205f2090600202015f91509050805f01805461047e90611ff2565b80601f01602080910402602001604051908101604052809291908181526020018280546104aa90611ff2565b80156104f55780601f106104cc576101008083540402835291602001916104f5565b820191905f5260205f20905b8154815290600101906020018083116104d857829003601f168201915b50505050509080600101805461050a90611ff2565b80601f016020809104026020016040519081016040528092919081815260200182805461053690611ff2565b80156105815780601f1061055857610100808354040283529160200191610581565b820191905f5260205f20905b81548152906001019060200180831161056457829003601f168201915b5050505050905082565b6060610596826105d7565b90508060016040516020016105ac929190612099565b6040516020818303038152906040529050919050565b5f60046105cf8382612102565b503092915050565b60606105e161156a565b5f610612836040805180820182525f8082526020918201528151808301909252825182529182019181019190915290565b60408051808201825260018152602f60f81b6020808301918252835180850185525f8082529082018190528451808601909552925184528301529192509061065a83836118eb565b6106659060016121d5565b6001600160401b0381111561067c5761067c611d6b565b6040519080825280602002602001820160405280156106af57816020015b606081526020019060019003908161069a5790505b5090505f5b81518110156106f4576106cf6106ca8585611986565b6119a4565b8282815181106106e1576106e16121e8565b60209081029190910101526001016106b4565b506040805160018082528183019092525f91816020015b606081526020019060019003908161070b57905050905060405180606001604052806028815260200161267e60289139815f8151811061074d5761074d6121e8565b6020908102919091010152604051638916046760e01b81525f90737109709ecfa91a80626ff3989d68f67f5b1dd12d906389160467906107919085906004016121fc565b5f604051808303815f875af11580156107ac573d5f803e3d5ffd5b505050506040513d5f823e601f3d908101601f191682016040526107d3919081019061225e565b90505f61080f6107e2836122c6565b6040516020016107f491815260200190565b60405160208183030381529060405280519060200120611a08565b90505f845f81518110610824576108246121e8565b60200260200101519050600185511161086057818160405160200161084a9291906122e9565b604051602081830303815290604052905061090c565b60015b60018651610871919061232e565b8110156108be578186828151811061088b5761088b6121e8565b60200260200101516040516020016108a4929190612341565b60408051601f198184030181529190529150600101610863565b50808286600188516108d0919061232e565b815181106108e0576108e06121e8565b60200260200101516040516020016108fa9392919061237c565b60405160208183030381529060405290505b604080516003808252608082019092525f91816020015b606081526020019060019003908161092357905050905060405180606001604052806029815260200161262860299139815f81518110610965576109656121e8565b60200260200101819052508160405160200161098191906123df565b604051602081830303815290604052816001815181106109a3576109a36121e8565b60200260200101819052505f6040516020016109bf9190612419565b604051602081830303815290604052816002815181106109e1576109e16121e8565b6020908102919091010152604051638916046760e01b8152737109709ecfa91a80626ff3989d68f67f5b1dd12d90638916046790610a239084906004016121fc565b5f604051808303815f875af1158015610a3e573d5f803e3d5ffd5b505050506040513d5f823e601f3d908101601f19168201604052610a65919081019061225e565b50604080516003808252608082019092525f91816020015b6060815260200190600190039081610a7d5790505090506040518060600160405280602d8152602001612651602d9139815f81518110610abf57610abf6121e8565b602002602001018190525082604051602001610adb91906123df565b60405160208183030381529060405281600181518110610afd57610afd6121e8565b60200260200101819052508a604051602001610b1991906123df565b60405160208183030381529060405281600281518110610b3b57610b3b6121e8565b6020908102919091010152604051638916046760e01b8152737109709ecfa91a80626ff3989d68f67f5b1dd12d90638916046790610b7d9084906004016121fc565b5f604051808303815f875af1158015610b98573d5f803e3d5ffd5b505050506040513d5f823e601f3d908101601f19168201604052610bbf919081019061225e565b5060408051600580825260c082019092525f91816020015b6060815260200190600190039081610bd757505060055490915015610e5a57600554610c049060066121d5565b6001600160401b03811115610c1b57610c1b611d6b565b604051908082528060200260200182016040528015610c4e57816020015b6060815260200190600190039081610c395790505b509050604051806040016040528060028152602001612d6360f01b81525081600581518110610c7f57610c7f6121e8565b6020026020010181905250610ca7604051806040016040528060608152602001606081525090565b5f5b600554811015610e575760058181548110610cc657610cc66121e8565b905f5260205f2090600202016040518060400160405290815f82018054610cec90611ff2565b80601f0160208091040260200160405190810160405280929190818152602001828054610d1890611ff2565b8015610d635780601f10610d3a57610100808354040283529160200191610d63565b820191905f5260205f20905b815481529060010190602001808311610d4657829003601f168201915b50505050508152602001600182018054610d7c90611ff2565b80601f0160208091040260200160405190810160405280929190818152602001828054610da890611ff2565b8015610df35780601f10610dca57610100808354040283529160200191610df3565b820191905f5260205f20905b815481529060010190602001808311610dd657829003601f168201915b5050505050815250509150815f01518260200151604051602001610e18929190612435565b60408051601f1981840301815291905283610e348360066121d5565b81518110610e4457610e446121e8565b6020908102919091010152600101610ca9565b50505b60405180604001604052806005815260200164687566666360d81b815250815f81518110610e8a57610e8a6121e8565b602002602001018190525083604051602001610ea691906123df565b60405160208183030381529060405281600181518110610ec857610ec86121e8565b60200260200101819052506040518060400160405280600281526020016116b160f11b81525081600281518110610f0157610f016121e8565b6020026020010181905250604051806040016040528060028152602001612d6560f01b81525081600381518110610f3a57610f3a6121e8565b6020026020010181905250610f4d611804565b81600481518110610f6057610f606121e8565b6020908102919091010152604051638916046760e01b8152737109709ecfa91a80626ff3989d68f67f5b1dd12d90638916046790610fa29084906004016121fc565b5f604051808303815f875af1158015610fbd573d5f803e3d5ffd5b505050506040513d5f823e601f3d908101601f19168201604052610fe4919081019061225e565b60408051600280825260608201909252919c505f9190816020015b6060815260200190600190039081610fff57905050905060405180604001604052806002815260200161726d60f01b815250815f81518110611043576110436121e8565b60200260200101819052508460405160200161105f91906123df565b60405160208183030381529060405281600181518110611081576110816121e8565b602090810291909101015260035460405163ca669fa760e01b81526001600160a01b039091166004820152737109709ecfa91a80626ff3989d68f67f5b1dd12d9063ca669fa7906024015f604051808303815f87803b1580156110e2575f80fd5b505af11580156110f4573d5f803e3d5ffd5b5050604051638916046760e01b8152737109709ecfa91a80626ff3989d68f67f5b1dd12d92506389160467915061112f9084906004016121fc565b5f604051808303815f875af115801561114a573d5f803e3d5ffd5b505050506040513d5f823e601f3d908101601f19168201604052611171919081019061225e565b505050505050505050505050919050565b5f806105cf8382612102565b5f805461119a90611ff2565b80601f01602080910402602001604051908101604052809291908181526020018280546111c690611ff2565b80156112115780601f106111e857610100808354040283529160200191611211565b820191905f5260205f20905b8154815290600101906020018083116111f457829003601f168201915b505050505081565b5f60016105cf8382612102565b60408051808201909152601081526f181899199a1a9b1b9c1cb0b131b232b360811b60208201528151606091905f90611260906002612464565b61126b9060026121d5565b6001600160401b0381111561128257611282611d6b565b6040519080825280601f01601f1916602001820160405280156112ac576020820181803683370190505b509050600360fc1b815f815181106112c6576112c66121e8565b60200101906001600160f81b03191690815f1a905350600f60fb1b816001815181106112f4576112f46121e8565b60200101906001600160f81b03191690815f1a9053505f5b84518110156114255782600486838151811061132a5761132a6121e8565b016020015182516001600160f81b031990911690911c60f81c908110611352576113526121e8565b01602001516001600160f81b0319168261136d836002612464565b6113789060026121d5565b81518110611388576113886121e8565b60200101906001600160f81b03191690815f1a905350828582815181106113b1576113b16121e8565b602091010151815160f89190911c600f169081106113d1576113d16121e8565b01602001516001600160f81b031916826113ec836002612464565b6113f79060036121d5565b81518110611407576114076121e8565b60200101906001600160f81b03191690815f1a90535060010161130c565b509392505050565b6001805461119a90611ff2565b6004805461119a90611ff2565b5f600560405180604001604052808581526020016114858560405160200161147191815260200190565b604051602081830303815290604052611226565b905281546001810183555f928352602090922081519192600202019081906114ad9082612102565b50602082015160018201906114c29082612102565b5050503090505b92915050565b5f6005604051806040016040528085815260200161148585604051602001611471919060609190911b6bffffffffffffffffffffffff1916815260140190565b6040805180820190915282815260208101829052600580546001810182555f918252825191929160029091027f036b6384b5eca791c62761152d0c79bb0604c104a5fb6f4eb0703f3154bb3db0019081906114ad9082612102565b6040805160018082528183019092525f91816020015b60608152602001906001900390816115805790505090506040518060600160405280602a81526020016125fe602a9139815f815181106115c2576115c26121e8565b6020908102919091010152604051638916046760e01b81525f90737109709ecfa91a80626ff3989d68f67f5b1dd12d906389160467906116069085906004016121fc565b5f604051808303815f875af1158015611621573d5f803e3d5ffd5b505050506040513d5f823e601f3d908101601f19168201604052611648919081019061225e565b90505f815f8151811061165d5761165d6121e8565b01602001516001600160f81b0319169050600160f81b8114806117015760405162461bcd60e51b815260206004820152604b60248201527f496e76616c69642068756666632062696e6172792e2052756e20606375726c2060448201527f2d4c206765742e687566662e7368207c20626173686020616e6420606875666660648201526a3ab830103a37903334bc1760a91b608482015260a4015b60405180910390fd5b50505050565b5f806117128361058b565b6003549091505f90600160a01b900460ff161561178a57604080516302bf260160e61b81529051737109709ecfa91a80626ff3989d68f67f5b1dd12d9163afc98040916004808301925f92919082900301818387803b158015611773575f80fd5b505af1158015611785573d5f803e3d5ffd5b505050505b60025482516020840182f09150506001600160a01b0381166117fd5760405162461bcd60e51b815260206004820152602660248201527f487566664465706c6f79657220636f756c64206e6f74206465706c6f7920636f6044820152651b9d1c9858dd60d21b60648201526084016116f8565b9392505050565b60605f6004604051602001611819919061247b565b604051602081830303815290604052611831906122c6565b90508061185c5750506040805180820190915260088152677368616e6768616960c01b602082015290565b6004805461186990611ff2565b80601f016020809104026020016040519081016040528092919081815260200182805461189590611ff2565b80156118e05780601f106118b7576101008083540402835291602001916118e0565b820191905f5260205f20905b8154815290600101906020018083116118c357829003601f168201915b505050505091505090565b5f80825f015161190b855f01518660200151865f01518760200151611a9d565b61191591906121d5565b90505b8351602085015161192991906121d5565b811161197f578161193981612486565b925050825f015161196e856020015183611953919061232e565b865161195f919061232e565b83865f01518760200151611a9d565b61197891906121d5565b9050611918565b5092915050565b604080518082019091525f808252602082015261197f838383611bbb565b60605f825f01516001600160401b038111156119c2576119c2611d6b565b6040519080825280601f01601f1916602001820160405280156119ec576020820181803683370190505b5090505f60208201905061197f818560200151865f0151611c61565b6060805f5b602081101561197f5781601a858360208110611a2b57611a2b6121e8565b611a379291901a61249e565b611a429060616124cb565b604051602001611a65919060f89190911b6001600160f81b031916815260010190565b60408051601f1981840301815290829052611a8392916020016124e4565b60408051601f198184030181529190529150600101611a0d565b5f8381868511611ba45760208511611b54575f8515611ae7576001611ac387602061232e565b611ace906008612464565b611ad99060026125f2565b611ae3919061232e565b1990505b845181165f87611af78b8b6121d5565b611b01919061232e565b855190915083165b828114611b4657818610611b2e57611b218b8b6121d5565b9650505050505050611bb3565b85611b3881612486565b965050838651169050611b09565b859650505050505050611bb3565b508383205f905b611b65868961232e565b8211611ba257858320808203611b815783945050505050611bb3565b611b8c6001856121d5565b9350508180611b9a90612486565b925050611b5b565b505b611bae87876121d5565b925050505b949350505050565b604080518082019091525f80825260208201525f611be9855f01518660200151865f01518760200151611a9d565b602080870180519186019190915251909150611c05908261232e565b835284516020860151611c1891906121d5565b8103611c26575f8552611c58565b83518351611c3491906121d5565b85518690611c4390839061232e565b9052508351611c5290826121d5565b60208601525b50909392505050565b60208110611c995781518352611c786020846121d5565b9250611c856020836121d5565b9150611c9260208261232e565b9050611c61565b5f198115611cc7576001611cae83602061232e565b611cba906101006125f2565b611cc4919061232e565b90505b9151835183169219169190911790915250565b5f60208284031215611cea575f80fd5b5035919050565b5f5b83811015611d0b578181015183820152602001611cf3565b50505f910152565b5f8151808452611d2a816020860160208601611cf1565b601f01601f19169290920160200192915050565b604081525f611d506040830185611d13565b8281036020840152611d628185611d13565b95945050505050565b634e487b7160e01b5f52604160045260245ffd5b604051601f8201601f191681016001600160401b0381118282101715611da757611da7611d6b565b604052919050565b5f6001600160401b03821115611dc757611dc7611d6b565b50601f01601f191660200190565b5f611de7611de284611daf565b611d7f565b9050828152838383011115611dfa575f80fd5b828260208301375f602084830101529392505050565b5f82601f830112611e1f575f80fd5b6117fd83833560208501611dd5565b5f60208284031215611e3e575f80fd5b81356001600160401b03811115611e53575f80fd5b611bb384828501611e10565b602081525f6117fd6020830184611d13565b5f60208284031215611e81575f80fd5b81356001600160401b03811115611e96575f80fd5b8201601f81018413611ea6575f80fd5b611bb384823560208401611dd5565b5f8060408385031215611ec6575f80fd5b82356001600160401b03811115611edb575f80fd5b611ee785828601611e10565b95602094909401359450505050565b80356001600160a01b0381168114611f0c575f80fd5b919050565b5f8060408385031215611f22575f80fd5b82356001600160401b03811115611f37575f80fd5b611f4385828601611e10565b925050611f5260208401611ef6565b90509250929050565b5f8060408385031215611f6c575f80fd5b82356001600160401b0380821115611f82575f80fd5b611f8e86838701611e10565b93506020850135915080821115611fa3575f80fd5b50611fb085828601611e10565b9150509250929050565b5f60208284031215611fca575f80fd5b6117fd82611ef6565b5f60208284031215611fe3575f80fd5b813580151581146117fd575f80fd5b600181811c9082168061200657607f821691505b60208210810361202457634e487b7160e01b5f52602260045260245ffd5b50919050565b5f815461203681611ff2565b6001828116801561204e57600181146120635761208f565b60ff198416875282151583028701945061208f565b855f526020805f205f5b858110156120865781548a82015290840190820161206d565b50505082870194505b5050505092915050565b5f83516120aa818460208801611cf1565b611d628184018561202a565b601f8211156120fd57805f5260205f20601f840160051c810160208510156120db5750805b601f840160051c820191505b818110156120fa575f81556001016120e7565b50505b505050565b81516001600160401b0381111561211b5761211b611d6b565b61212f816121298454611ff2565b846120b6565b602080601f831160018114612162575f841561214b5750858301515b5f19600386901b1c1916600185901b1785556121b9565b5f85815260208120601f198616915b8281101561219057888601518255948401946001909101908401612171565b50858210156121ad57878501515f19600388901b60f8161c191681555b505060018460011b0185555b505050505050565b634e487b7160e01b5f52601160045260245ffd5b808201808211156114c9576114c96121c1565b634e487b7160e01b5f52603260045260245ffd5b5f60208083016020845280855180835260408601915060408160051b8701019250602087015f5b8281101561225157603f1988860301845261223f858351611d13565b94509285019290850190600101612223565b5092979650505050505050565b5f6020828403121561226e575f80fd5b81516001600160401b03811115612283575f80fd5b8201601f81018413612293575f80fd5b80516122a1611de282611daf565b8181528560208385010111156122b5575f80fd5b611d62826020830160208601611cf1565b80516020808301519190811015612024575f1960209190910360031b1b16919050565b675f5f54454d505f5f60c01b81525f835161230b816008850160208801611cf1565b835190830190612322816008840160208801611cf1565b01600801949350505050565b818103818111156114c9576114c96121c1565b5f8351612352818460208801611cf1565b602f60f81b9083019081528351612370816001840160208801611cf1565b01600101949350505050565b5f845161238d818460208901611cf1565b602f60f81b908301908152675f5f54454d505f5f60c01b600182015284516123bc816009840160208901611cf1565b84519101906123d2816009840160208801611cf1565b0160090195945050505050565b637372632f60e01b81525f82516123fd816004850160208701611cf1565b6417343ab33360d91b6004939091019283015250600901919050565b5f612424828461202a565b600560f91b81526001019392505050565b5f8351612446818460208801611cf1565b603d60f81b9083019081528351612370816001840160208801611cf1565b80820281158282048414176114c9576114c96121c1565b5f6117fd828461202a565b5f60018201612497576124976121c1565b5060010190565b5f60ff8316806124bc57634e487b7160e01b5f52601260045260245ffd5b8060ff84160691505092915050565b60ff81811683821601908111156114c9576114c96121c1565b5f83516124f5818460208801611cf1565b835190830190612509818360208801611cf1565b01949350505050565b600181815b8085111561254c57815f1904821115612532576125326121c1565b8085161561253f57918102915b93841c9390800290612517565b509250929050565b5f82612562575060016114c9565b8161256e57505f6114c9565b8160018114612584576002811461258e576125aa565b60019150506114c9565b60ff84111561259f5761259f6121c1565b50506001821b6114c9565b5060208310610133831016604e8410600b84101617156125cd575081810a6114c9565b6125d78383612512565b805f19048211156125ea576125ea6121c1565b029392505050565b5f6117fd838361255456fe2e2f6c69622f666f756e6472792d687566662f736372697074732f62696e6172795f636865636b2e73682e2f6c69622f666f756e6472792d687566662f736372697074732f66696c655f7772697465722e73682e2f6c69622f666f756e6472792d687566662f736372697074732f726561645f616e645f617070656e642e73682e2f6c69622f666f756e6472792d687566662f736372697074732f72616e645f62797465732e7368a2646970667358221220e477ce3757f10f2abf082856012b0f6beff4942243757265469616d478414bd164736f6c63430008190033","linkReferences":{}},"methodIdentifiers":{"args()":"4e9b75b6","binary_check()":"c5effd02","bytesToString(bytes)":"39614e4f","code()":"24c12bf6","const_overrides(uint256)":"0c7d1681","creation_code(string)":"220481ef","creation_code_with_args(string)":"0cc76616","deploy(string)":"c7602316","deployer()":"d5f39488","evm_version()":"68f192f2","get_evm_version()":"dd1ec824","set_broadcast(bool)":"df9f3dee","should_broadcast()":"e9e68e1d","value()":"3fa4f245","vm()":"3a768463","with_addr_constant(string,address)":"6fcef9d5","with_args(bytes)":"28764d14","with_bytes32_constant(string,bytes32)":"e5df3076","with_code(string)":"2232d908","with_constant(string,string)":"8093a1b9","with_deployer(address)":"92bb10d7","with_evm_version(string)":"1a8f1a1c","with_uint_constant(string,uint256)":"6b07af10","with_value(uint256)":"7dc2225f"},"id":19}